:020000040800F2
:10000000005000209D020008E1020008E102000803
:10001000E1020008E1020008E1020008000000001F
:10002000000000000000000000000000E1020008E5
:10003000E102000800000000E1020008E1020008FF
:10004000E1020008E1020008E1020008E102000804
:10005000E1020008E1020008E1020008E1020008F4
:10006000E1020008E1020008E1020008E1020008E4
:10007000E1020008E1020008E1020008E1020008D4
:10008000E1020008E1020008E1020008E1020008C4
:10009000E1020008E1020008E1020008E1020008B4
:1000A000E1020008E1020008E1020008E1020008A4
:1000B000E1020008E1020008E1020008E102000894
:1000C000E1020008E1020008E1020008E102000884
:1000D000E1020008E1020008E1020008E102000874
:1000E000E1020008E1020008E1020008000000004F
:1000F0000000000000000000000000000000000000
:0C01000000000000000000005FF808F1A3
:10010C0082B03C4B1A6842F001021A6059683A4AB4
:10011C000A405A601A6822F0847222F480321A6003
:10012C001A6822F480221A605A6822F4FE025A607D
:10013C004FF41F029A600022009201921A6842F456
:10014C0080321A601A46136803F400330193009B43
:10015C0001330093019B1BB9009BB3F5A06FF2D147
:10016C00244B1B6813F4003F14BF0123002301939D
:10017C00019B012B05D0214B4FF000629A6002B01D
:10018C0070471F4B1A6842F010021A601A6822F06E
:10019C0003021A601A6842F002021A60A3F5805337
:1001AC005A685A605A685A605A6842F480625A60B7
:1001BC005A6822F47C125A605A6842F4E8125A6067
:1001CC001A6842F080721A601A46136813F0007FA6
:1001DC00FBD0084B5A6822F003025A605A6842F06E
:1001EC0002025A601A46536803F00C03082BFAD12A
:1001FC00C1E700BF001002400000FFF800ED00E076
:10020C00002002401D4B5B6803F00C03042B15D03F
:10021C00082B17D01BB11A4B1A4A1A6002E0184B64
:10022C00184A1A60154B5B68C3F30313144A134442
:10023C001B79D9B21368CB4013607047104B114A2D
:10024C001A60EFE70D4A53685268C3F383430233D5
:10025C0012F4803F05D10C4A02FB03F3084A1360E9
:10026C00E0E7064A526812F4003F14BF064A054AFA
:10027C0002FB03F3024A1360D4E700BF00100240F4
:10028C000000002000127A0000093D00FEE700008B
:10029C00002103E00A4B5B584350043109480A4BD8
:1002AC0042189A42F6D3094A02E0002342F8043B72
:1002BC00074B9A42F9D3FFF723FFFFF7E7FF70478D
:1002CC005F03000800000020140000201400002030
:0802DC0014000020FEE7000001
:10035F0000A24A0400000000000000000102030494
:04036F00060708096C
:040000050800029D50
:00000001FF
